:040000000128FC2FA8
:10090400F1007108AA2408004E010F0E890C013968
:100914000800A2244225B224ED24080071084001F5
:10092400B8007008B700080071084001BC007008E6
:10093400BB00080071084001BA007008B900080043
:100944004F0196019701980199019A019B010800B2
:10095400F0004E010F1EAB2C700842019A000800F3
:10096400703051018D008F0191010230930090018C
:1009740092010800013400340A3400346434003431
:10098400E8340334103427344E018F1EC62C400142
:10099400BD0142019D1CD02C1D121D161908080012
:1009A4000D340A340934523465347634693473347A
:1009B40069346F346E342034543469346D3465349E
:1009C4003A342034313431343A34343435343A34EA
:1009D400343432340034083042019F0090309D009A
:1009E40024309E0067309B009C010030F0000030F2
:1009F400F10096240030F0000030F1009C24003017
:100A0400F0000030F10090244001BD0108000C34D6
:100A140045346D3462346534643464346534643428
:100A24002034503443344234203443346C346134FD
:100A3400733473342034503472346F346A3465340C
:100A440063347434003445346D346234653464344E
:100A5400643465346434203443346C346134733422
:100A640073342034503472346F346A3465346334EC
:100A7400743420342534643420340A340D3400347E
:100A8400400198019A0137309200203094001F30C1
:100A94007E01CE003330B800B901CF01BA01D001D4
:100AA4003730BB003F30D1003F30BC003F30D20074
:100AB4000F30A40015307D01CB0008000D340A343A
:100AC40009345234653476346934733469346F3498
:100AD4006E34203444346134743465343A3420340C
:100AE4004E346F3476342034303436342034323457
:100AF40030343134393400340D340A3454346834E5
:100B04006534203442345534543454344F344E34E0
:100B14002034683461347334203462346534653489
:100B24006E34203470347234653473347334653401
:100B340064340D340A340034543468346534203455
:100B440042345534543454344F344E34203468349D
:100B54006134733420346234653465346E34203443
:100B6400723465346C34653461347334653464349C
:100B74000D340A340A340034780879040319E52D55
:100B8400FD01FD0AF91BD02D0130F835F90D890B53
:100B9400C72D0130FC007C08FD07C42D79087B02B9
:100BA400031DD62D78087A02031CDC2D7808FA027E
:100BB4007908FB3B0130F936F80C890BDD2D013047
:100BC400FD02031DD02D7B08F9007A08F800080007
:100BD4000D340A3428344334293432343034313433
:100BE400393420344A3461346E3465346C346C34B2
:100BF4006534203444346934653473346234753470
:100C0400723467342C34203452346F347734613482
:100C14006E34203455346E34693476346534723429
:100C240073346934743479340D340A340A34003436
:100C3400F300F401F5017508803AF0008030700289
:100C4400031D262E7308740203180800F601F70129
:100C54007708803AF00080307002031D332EFF3095
:100C640076020318482E0130F1070030F23D0130BE
:100C7400F6070030F73D7708803AF00080307002C4
:100C8400031D462EFF307602031C352E0130F40777
:100C94000030F53D1D2EF501F601700871040319AD
:100CA4007C2EF701F70AF11B612E0130F035F10DAE
:100CB400890B582E0130F4007408F707552E0130C3
:100CC400F535F60D890B622E71087302031D6C2E27
:100CD40070087202031C732E7008F2027108F33B51
:100CE40075140130F136F00C890B742E0130F702C3
:100CF400031D612E7608F1007508F00008000D341C
:100D04000A340A3457346534203472346534633415
:100D140065346934763465346434203461346E3433
:100D2400203469346E347034753474342C34203483
:100D3400743468346534203425346334253463349E
:100D44002534633420346B34653479342034773477
:100D540061347334203470347234653473347334CE
:100D6400653464342E340D340A340A3400344001BA
:100D7400B401B5018B2409304001A0008530A100E5
:100D84003B2760304001A0008530A1003B27D230D2
:100D94004001A0008430A1003B27EA304001A000BC
:100DA4008530A1003B2740010C1D032F2530A000F6
:100DB4008530A1003508A3003408A2003B27400178
:100DC4001A149A101A119A111E301A2640011A1078
:100DD4009A141A119A111E301A2640011A109A10E8
:100DE4001A159A111E301A2640011A109A101A1157
:100DF4009A151E301A2601304001B4070030B53D63
:100E04001E2F7E30A0008530A1003B2740010C1925
:100E1400192F1A109A101A159A152D301A264001F6
:100E24001A149A141A119A112D301A26082F9E306A
:100E3400A0008530A1003B278624003A0319D52E53
:100E4400C6244001B2003208B6008130A0008630CA
:100E5400A1002230A2000030A3003608B200B30182
:100E64003208A4003308A5002230A6000030A700F1
:100E7400D42E22304001A8002808AE0040012108E9
:100E8400A9002008A800A00A0319A10A28088400C0
:100E9400290885000008AA002A08B10031080319AE
:100EA40008002530310603195A2F31088224402FB7
:100EB4004001AC016B2F2E08860087010108A800B1
:100EC4002808B1000230A8002808AE07310882249F
:100ED400402F40012108A9002008A800A00A0319F6
:100EE400A10A28088400290885000008B100003AF6
:100EF4000319FB2F633A03195D2F073A0319862F51
:100F04000D3A0319862F682F40012E0886008701A9
:100F1400403FAF00413FB0000230A8002808AE07B0
:100F2400B01F9D2F0330A8002808AC04AF09B009F6
:100F3400AF0A0319B00AB101B10A05303106031929
:100F4400C22F3108A800A901A835A90DBC30280773
:100F540084008430293D8500003FAA00013FAB0096
:100F64002B083002031DB82F2A082F02031CC22F9E
:100F74000130A8002808B10705303106031DA32F4E
:100F84002C0803390319C82F2D308224400131085D
:100F9400A8002808AD00FF304001A8002808AD07CC
:100FA4002D0A0319402F0A30F8000030F9002D08EB
:100FB400A800A901A835A90DBC30280784008430F5
:100FC400293D8500003FF000013FF1003008F300A7
:100FD4002F08F2004D267108FB007008FA00BE25A8
:100FE4007808303E4001AA002A08B1003108822462
:0C0FF400CD2F08004001BD014001B92EC6
:020000040001F9
:0A000E00F93FFF3F9F3FFF3FFF3F18
:00000001FF
